{
  "contractName": "TokenMarketAcceptingUtility",
  "abi": [
    {
      "constant": true,
      "inputs": [],
      "name": "utility",
      "outputs": [
        {
          "name": "",
          "type": "address"
        }
      ],
      "payable": false,
      "stateMutability": "view",
      "type": "function",
      "signature": "0x40b2f5b5"
    },
    {
      "constant": true,
      "inputs": [],
      "name": "security",
      "outputs": [
        {
          "name": "",
          "type": "address"
        }
      ],
      "payable": false,
      "stateMutability": "view",
      "type": "function",
      "signature": "0x54879918"
    },
    {
      "constant": false,
      "inputs": [],
      "name": "renounceOwnership",
      "outputs": [],
      "payable": false,
      "stateMutability": "nonpayable",
      "type": "function",
      "signature": "0x715018a6"
    },
    {
      "constant": true,
      "inputs": [],
      "name": "utilityStorage",
      "outputs": [
        {
          "name": "",
          "type": "address"
        }
      ],
      "payable": false,
      "stateMutability": "view",
      "type": "function",
      "signature": "0x7deba21d"
    },
    {
      "constant": true,
      "inputs": [],
      "name": "owner",
      "outputs": [
        {
          "name": "",
          "type": "address"
        }
      ],
      "payable": false,
      "stateMutability": "view",
      "type": "function",
      "signature": "0x8da5cb5b"
    },
    {
      "constant": true,
      "inputs": [],
      "name": "isOwner",
      "outputs": [
        {
          "name": "",
          "type": "bool"
        }
      ],
      "payable": false,
      "stateMutability": "view",
      "type": "function",
      "signature": "0x8f32d59b"
    },
    {
      "constant": true,
      "inputs": [],
      "name": "price",
      "outputs": [
        {
          "name": "",
          "type": "uint256"
        }
      ],
      "payable": false,
      "stateMutability": "view",
      "type": "function",
      "signature": "0xa035b1fe"
    },
    {
      "constant": true,
      "inputs": [],
      "name": "securityStorage",
      "outputs": [
        {
          "name": "",
          "type": "address"
        }
      ],
      "payable": false,
      "stateMutability": "view",
      "type": "function",
      "signature": "0xc8812d0f"
    },
    {
      "constant": false,
      "inputs": [
        {
          "name": "newOwner",
          "type": "address"
        }
      ],
      "name": "transferOwnership",
      "outputs": [],
      "payable": false,
      "stateMutability": "nonpayable",
      "type": "function",
      "signature": "0xf2fde38b"
    },
    {
      "inputs": [
        {
          "name": "utility_",
          "type": "address"
        },
        {
          "name": "security_",
          "type": "address"
        },
        {
          "name": "utilityStorage_",
          "type": "address"
        },
        {
          "name": "securityStorage_",
          "type": "address"
        },
        {
          "name": "price_",
          "type": "uint256"
        }
      ],
      "payable": false,
      "stateMutability": "nonpayable",
      "type": "constructor",
      "signature": "constructor"
    },
    {
      "anonymous": false,
      "inputs": [
        {
          "indexed": true,
          "name": "sender",
          "type": "address"
        },
        {
          "indexed": false,
          "name": "securityAmount",
          "type": "uint256"
        },
        {
          "indexed": false,
          "name": "price",
          "type": "uint256"
        }
      ],
      "name": "Buy",
      "type": "event",
      "signature": "0x1cbc5ab135991bd2b6a4b034a04aa2aa086dac1371cb9b16b8b5e2ed6b036bed"
    },
    {
      "anonymous": false,
      "inputs": [
        {
          "indexed": true,
          "name": "sender",
          "type": "address"
        },
        {
          "indexed": false,
          "name": "securityAmount",
          "type": "uint256"
        },
        {
          "indexed": false,
          "name": "price",
          "type": "uint256"
        }
      ],
      "name": "Sell",
      "type": "event",
      "signature": "0xed7a144fad14804d5c249145e3e0e2b63a9eb455b76aee5bc92d711e9bba3e4a"
    },
    {
      "anonymous": false,
      "inputs": [
        {
          "indexed": true,
          "name": "previousOwner",
          "type": "address"
        },
        {
          "indexed": true,
          "name": "newOwner",
          "type": "address"
        }
      ],
      "name": "OwnershipTransferred",
      "type": "event",
      "signature": "0x8be0079c531659141344cd1fd0a4f28419497f9722a3daafe3b4186f6b6457e0"
    },
    {
      "constant": false,
      "inputs": [
        {
          "name": "price_",
          "type": "uint256"
        }
      ],
      "name": "updatePrice",
      "outputs": [],
      "payable": false,
      "stateMutability": "nonpayable",
      "type": "function",
      "signature": "0x8d6cc56d"
    },
    {
      "constant": true,
      "inputs": [],
      "name": "securityBalance",
      "outputs": [
        {
          "name": "",
          "type": "uint256"
        }
      ],
      "payable": false,
      "stateMutability": "view",
      "type": "function",
      "signature": "0x95923f37"
    },
    {
      "constant": false,
      "inputs": [
        {
          "name": "securityAmount",
          "type": "uint256"
        },
        {
          "name": "price_",
          "type": "uint256"
        }
      ],
      "name": "buy",
      "outputs": [
        {
          "name": "",
          "type": "bool"
        }
      ],
      "payable": false,
      "stateMutability": "nonpayable",
      "type": "function",
      "signature": "0xd6febde8"
    },
    {
      "constant": false,
      "inputs": [
        {
          "name": "securityAmount",
          "type": "uint256"
        },
        {
          "name": "price_",
          "type": "uint256"
        }
      ],
      "name": "sell",
      "outputs": [
        {
          "name": "",
          "type": "bool"
        }
      ],
      "payable": false,
      "stateMutability": "nonpayable",
      "type": "function",
      "signature": "0xd79875eb"
    }
  ],
  "bytecode": "0x608060405234801561001057600080fd5b5060405160a0806109e3833981018060405260a081101561003057600080fd5b5080516020820151604080840151606085015160809095015160008054600160a060020a03191633178082559351959694959294939192600160a060020a0392909216917f8be0079c531659141344cd1fd0a4f28419497f9722a3daafe3b4186f6b6457e0908290a360018054600160a060020a0319908116600160a060020a0397881617909155600280548216958716959095179094556003805485169286169290921790915560048054909316919093161790556005556108eb806100f86000396000f3fe608060405234801561001057600080fd5b50600436106100ec576000357c0100000000000000000000000000000000000000000000000000000000900480638f32d59b116100a9578063c8812d0f11610083578063c8812d0f14610192578063d6febde81461019a578063d79875eb146101bd578063f2fde38b146101e0576100ec565b80638f32d59b1461015457806395923f3714610170578063a035b1fe1461018a576100ec565b806340b2f5b5146100f15780635487991814610115578063715018a61461011d5780637deba21d146101275780638d6cc56d1461012f5780638da5cb5b1461014c575b600080fd5b6100f9610206565b60408051600160a060020a039092168252519081900360200190f35b6100f9610215565b610125610224565b005b6100f961028e565b6101256004803603602081101561014557600080fd5b503561029d565b6100f96102b5565b61015c6102c4565b604080519115158252519081900360200190f35b6101786102d5565b60408051918252519081900360200190f35b610178610413565b6100f9610419565b61015c600480360360408110156101b057600080fd5b5080359060200135610428565b61015c600480360360408110156101d357600080fd5b50803590602001356105f9565b610125600480360360208110156101f657600080fd5b5035600160a060020a03166107bc565b600154600160a060020a031681565b600254600160a060020a031681565b61022c6102c4565b151561023757600080fd5b60008054604051600160a060020a03909116907f8be0079c531659141344cd1fd0a4f28419497f9722a3daafe3b4186f6b6457e0908390a36000805473ffffffffffffffffffffffffffffffffffffffff19169055565b600454600160a060020a031681565b6102a56102c4565b15156102b057600080fd5b600555565b600054600160a060020a031690565b600054600160a060020a0316331490565b600254600354604080517fdd62ed3e000000000000000000000000000000000000000000000000000000008152600160a060020a039283166004820152306024820152905160009361040e93169163dd62ed3e916044808301926020929190829003018186803b15801561034857600080fd5b505afa15801561035c573d6000803e3d6000fd5b505050506040513d602081101561037257600080fd5b5051600254600354604080517f70a08231000000000000000000000000000000000000000000000000000000008152600160a060020a039283166004820152905191909216916370a08231916024808301926020929190829003018186803b1580156103dd57600080fd5b505afa1580156103f1573d6000803e3d6000fd5b505050506040513d602081101561040757600080fd5b50516107db565b905090565b60055481565b600354600160a060020a031681565b600554600090821461043957600080fd5b6104416102d5565b83111561044d57600080fd5b600061047c670de0b6b3a7640000610470600554876107f390919063ffffffff16565b9063ffffffff61081e16565b600154600480546040805160e060020a6323b872dd0281523393810193909352600160a060020a0391821660248401526044830185905251939450909116916323b872dd916064808201926020929091908290030181600087803b1580156104e357600080fd5b505af11580156104f7573d6000803e3d6000fd5b505050506040513d602081101561050d57600080fd5b5051151561051a57600080fd5b6002546003546040805160e060020a6323b872dd028152600160a060020a03928316600482015233602482015260448101889052905191909216916323b872dd9160648083019260209291908290030181600087803b15801561057c57600080fd5b505af1158015610590573d6000803e3d6000fd5b505050506040513d60208110156105a657600080fd5b505115156105b357600080fd5b6040805185815260208101859052815133927f1cbc5ab135991bd2b6a4b034a04aa2aa086dac1371cb9b16b8b5e2ed6b036bed928290030190a260019150505b92915050565b600554600090821461060a57600080fd5b6106126102d5565b83111561061e57600080fd5b6000610641670de0b6b3a7640000610470600554876107f390919063ffffffff16565b600154600480546040805160e060020a6323b872dd028152600160a060020a03928316938101939093523360248401526044830185905251939450909116916323b872dd916064808201926020929091908290030181600087803b1580156106a857600080fd5b505af11580156106bc573d6000803e3d6000fd5b505050506040513d60208110156106d257600080fd5b505115156106df57600080fd5b6002546003546040805160e060020a6323b872dd028152336004820152600160a060020a03928316602482015260448101889052905191909216916323b872dd9160648083019260209291908290030181600087803b15801561074157600080fd5b505af1158015610755573d6000803e3d6000fd5b505050506040513d602081101561076b57600080fd5b5051151561077857600080fd5b6040805185815260208101859052815133927fed7a144fad14804d5c249145e3e0e2b63a9eb455b76aee5bc92d711e9bba3e4a928290030190a25060019392505050565b6107c46102c4565b15156107cf57600080fd5b6107d881610842565b50565b60008183106107ea57816107ec565b825b9392505050565b6000821515610804575060006105f3565b82820282848281151561081357fe5b04146107ec57600080fd5b600080821161082c57600080fd5b6000828481151561083957fe5b04949350505050565b600160a060020a038116151561085757600080fd5b60008054604051600160a060020a03808516939216917f8be0079c531659141344cd1fd0a4f28419497f9722a3daafe3b4186f6b6457e091a36000805473ffffffffffffffffffffffffffffffffffffffff1916600160a060020a039290921691909117905556fea165627a7a72305820d61a05efdb0dea79859107efa1ac35b8ce73cc6d130d0cb3ae3d3f6f40497aff0029",
  "source": "pragma solidity >=0.5.2;\r\n\r\nimport \"openzeppelin-solidity/contracts/token/ERC20/ERC20.sol\";\r\nimport \"openzeppelin-solidity/contracts/math/SafeMath.sol\";\r\nimport \"openzeppelin-solidity/contracts/math/Math.sol\";\r\nimport \"openzeppelin-solidity/contracts/ownership/Ownable.sol\";\r\nimport \"./ERC20Interface.sol\";\r\n\r\n\r\ncontract TokenMarketAcceptingUtility is Ownable {\r\n  using SafeMath for uint;\r\n\r\n  ERC20Interface public utility;\r\n  ERC20Interface public security;\r\n  \r\n  address public securityStorage;\r\n  address public utilityStorage;\r\n  uint public price;\r\n  \r\n  uint constant DECIMAL_MULTIPLIER = 1e18;\r\n\r\n  event Buy(address indexed sender, uint securityAmount, uint price);\r\n  event Sell(address indexed sender, uint securityAmount, uint price);\r\n  \r\n\r\n  constructor(address utility_, address security_, address utilityStorage_, address securityStorage_, uint price_) public {\r\n    utility = ERC20Interface(utility_);\r\n    security = ERC20Interface(security_);\r\n    securityStorage = securityStorage_;\r\n    utilityStorage = utilityStorage_;\r\n    price = price_;\r\n  }\r\n\r\n  function updatePrice(uint price_) public onlyOwner {\r\n    price = price_;\r\n  }\r\n\r\n  function securityBalance() public view returns(uint) {\r\n    return Math.min(security.allowance(securityStorage, address(this)), security.balanceOf(securityStorage));\r\n  }\r\n\r\n  function buy(uint securityAmount, uint price_) public returns(bool) {\r\n    require(price_ == price);\r\n    require(securityAmount <= securityBalance());\r\n    uint utilityAmount = securityAmount.mul(price).div(DECIMAL_MULTIPLIER);\r\n    require(utility.transferFrom(msg.sender, utilityStorage, utilityAmount));\r\n    require(security.transferFrom(securityStorage, msg.sender, securityAmount));\r\n    emit Buy(msg.sender, securityAmount, price_);\r\n    return true;\r\n  }\r\n\r\n  function sell(uint securityAmount, uint price_) public returns(bool) {\r\n    require(price_ == price);\r\n    require(securityAmount <= securityBalance());\r\n    uint utilityAmount = securityAmount.mul(price).div(DECIMAL_MULTIPLIER);\r\n    require(utility.transferFrom(utilityStorage, msg.sender, utilityAmount));\r\n    require(security.transferFrom(msg.sender, securityStorage, securityAmount));\r\n    emit Sell(msg.sender, securityAmount, price_);\r\n    return true;\r\n  }\r\n\r\n}",
  "sourcePath": "C:/Users/snjax/Documents/projects/bankex/security-token/contracts/TokenMarketAcceptingUtility.sol",
  "compiler": {
    "name": "solc",
    "version": "0.5.2+commit.1df8f40c.Emscripten.clang"
  },
  "schemaVersion": "3.0.2",
  "updatedAt": "2019-03-05T11:59:34.210Z",
  "devdoc": {
    "methods": {
      "isOwner()": {
        "return": "true if `msg.sender` is the owner of the contract."
      },
      "owner()": {
        "return": "the address of the owner."
      },
      "renounceOwnership()": {
        "details": "Allows the current owner to relinquish control of the contract."
      },
      "transferOwnership(address)": {
        "details": "Allows the current owner to transfer control of the contract to a newOwner.",
        "params": {
          "newOwner": "The address to transfer ownership to."
        }
      }
    }
  },
  "userdoc": {
    "methods": {
      "renounceOwnership()": {
        "notice": "Renouncing to ownership will leave the contract without an owner. It will not be possible to call the functions with the `onlyOwner` modifier anymore."
      }
    }
  }
}