{
  "contractName": "DividendTokenAcceptingUtility",
  "abi": [
    {
      "constant": true,
      "inputs": [],
      "name": "name",
      "outputs": [
        {
          "name": "",
          "type": "string"
        }
      ],
      "payable": false,
      "stateMutability": "view",
      "type": "function",
      "signature": "0x06fdde03"
    },
    {
      "constant": false,
      "inputs": [
        {
          "name": "spender",
          "type": "address"
        },
        {
          "name": "value",
          "type": "uint256"
        }
      ],
      "name": "approve",
      "outputs": [
        {
          "name": "",
          "type": "bool"
        }
      ],
      "payable": false,
      "stateMutability": "nonpayable",
      "type": "function",
      "signature": "0x095ea7b3"
    },
    {
      "constant": true,
      "inputs": [],
      "name": "totalSupply",
      "outputs": [
        {
          "name": "",
          "type": "uint256"
        }
      ],
      "payable": false,
      "stateMutability": "view",
      "type": "function",
      "signature": "0x18160ddd"
    },
    {
      "constant": true,
      "inputs": [],
      "name": "decimals",
      "outputs": [
        {
          "name": "",
          "type": "uint8"
        }
      ],
      "payable": false,
      "stateMutability": "view",
      "type": "function",
      "signature": "0x313ce567"
    },
    {
      "constant": false,
      "inputs": [
        {
          "name": "spender",
          "type": "address"
        },
        {
          "name": "addedValue",
          "type": "uint256"
        }
      ],
      "name": "increaseAllowance",
      "outputs": [
        {
          "name": "",
          "type": "bool"
        }
      ],
      "payable": false,
      "stateMutability": "nonpayable",
      "type": "function",
      "signature": "0x39509351"
    },
    {
      "constant": true,
      "inputs": [],
      "name": "utility",
      "outputs": [
        {
          "name": "",
          "type": "address"
        }
      ],
      "payable": false,
      "stateMutability": "view",
      "type": "function",
      "signature": "0x40b2f5b5"
    },
    {
      "constant": true,
      "inputs": [
        {
          "name": "owner",
          "type": "address"
        }
      ],
      "name": "balanceOf",
      "outputs": [
        {
          "name": "",
          "type": "uint256"
        }
      ],
      "payable": false,
      "stateMutability": "view",
      "type": "function",
      "signature": "0x70a08231"
    },
    {
      "constant": true,
      "inputs": [],
      "name": "symbol",
      "outputs": [
        {
          "name": "",
          "type": "string"
        }
      ],
      "payable": false,
      "stateMutability": "view",
      "type": "function",
      "signature": "0x95d89b41"
    },
    {
      "constant": false,
      "inputs": [
        {
          "name": "spender",
          "type": "address"
        },
        {
          "name": "subtractedValue",
          "type": "uint256"
        }
      ],
      "name": "decreaseAllowance",
      "outputs": [
        {
          "name": "",
          "type": "bool"
        }
      ],
      "payable": false,
      "stateMutability": "nonpayable",
      "type": "function",
      "signature": "0xa457c2d7"
    },
    {
      "constant": true,
      "inputs": [
        {
          "name": "owner",
          "type": "address"
        },
        {
          "name": "spender",
          "type": "address"
        }
      ],
      "name": "allowance",
      "outputs": [
        {
          "name": "",
          "type": "uint256"
        }
      ],
      "payable": false,
      "stateMutability": "view",
      "type": "function",
      "signature": "0xdd62ed3e"
    },
    {
      "inputs": [
        {
          "name": "name",
          "type": "string"
        },
        {
          "name": "symbol",
          "type": "string"
        },
        {
          "name": "totalSupply",
          "type": "uint256"
        },
        {
          "name": "utility_",
          "type": "address"
        }
      ],
      "payable": false,
      "stateMutability": "nonpayable",
      "type": "constructor",
      "signature": "constructor"
    },
    {
      "anonymous": false,
      "inputs": [
        {
          "indexed": true,
          "name": "to",
          "type": "address"
        },
        {
          "indexed": false,
          "name": "value",
          "type": "uint256"
        }
      ],
      "name": "ReleaseDividendsRights",
      "type": "event",
      "signature": "0x36263ba6d12744d5cff511cccb3e7f307d324e2d8b8d80f32ee17946c9336e6b"
    },
    {
      "anonymous": false,
      "inputs": [
        {
          "indexed": true,
          "name": "from",
          "type": "address"
        },
        {
          "indexed": false,
          "name": "value",
          "type": "uint256"
        }
      ],
      "name": "AcceptDividends",
      "type": "event",
      "signature": "0xfd79186865d95a3bc46c677ebca9c859b628dde3530e0e057736a0299706062f"
    },
    {
      "anonymous": false,
      "inputs": [
        {
          "indexed": true,
          "name": "from",
          "type": "address"
        },
        {
          "indexed": true,
          "name": "to",
          "type": "address"
        },
        {
          "indexed": false,
          "name": "value",
          "type": "uint256"
        }
      ],
      "name": "Transfer",
      "type": "event",
      "signature": "0xddf252ad1be2c89b69c2b068fc378daa952ba7f163c4a11628f55a4df523b3ef"
    },
    {
      "anonymous": false,
      "inputs": [
        {
          "indexed": true,
          "name": "owner",
          "type": "address"
        },
        {
          "indexed": true,
          "name": "spender",
          "type": "address"
        },
        {
          "indexed": false,
          "name": "value",
          "type": "uint256"
        }
      ],
      "name": "Approval",
      "type": "event",
      "signature": "0x8c5be1e5ebec7d5bd14f71427d1e84f3dd0314c0f7b2291e5b200ac8c7c3b925"
    },
    {
      "constant": true,
      "inputs": [
        {
          "name": "owner",
          "type": "address"
        }
      ],
      "name": "dividendsRightsOf",
      "outputs": [
        {
          "name": "",
          "type": "uint256"
        }
      ],
      "payable": false,
      "stateMutability": "view",
      "type": "function",
      "signature": "0x14074135"
    },
    {
      "constant": false,
      "inputs": [
        {
          "name": "to",
          "type": "address"
        },
        {
          "name": "value",
          "type": "uint256"
        }
      ],
      "name": "releaseDividendsRights",
      "outputs": [
        {
          "name": "",
          "type": "bool"
        }
      ],
      "payable": false,
      "stateMutability": "nonpayable",
      "type": "function",
      "signature": "0xbf60e53b"
    },
    {
      "constant": false,
      "inputs": [
        {
          "name": "to",
          "type": "address"
        },
        {
          "name": "value",
          "type": "uint256"
        }
      ],
      "name": "transfer",
      "outputs": [
        {
          "name": "",
          "type": "bool"
        }
      ],
      "payable": false,
      "stateMutability": "nonpayable",
      "type": "function",
      "signature": "0xa9059cbb"
    },
    {
      "constant": false,
      "inputs": [
        {
          "name": "from",
          "type": "address"
        },
        {
          "name": "to",
          "type": "address"
        },
        {
          "name": "value",
          "type": "uint256"
        }
      ],
      "name": "transferFrom",
      "outputs": [
        {
          "name": "",
          "type": "bool"
        }
      ],
      "payable": false,
      "stateMutability": "nonpayable",
      "type": "function",
      "signature": "0x23b872dd"
    },
    {
      "constant": false,
      "inputs": [
        {
          "name": "from",
          "type": "address"
        },
        {
          "name": "value",
          "type": "uint256"
        }
      ],
      "name": "acceptDividends",
      "outputs": [
        {
          "name": "",
          "type": "bool"
        }
      ],
      "payable": false,
      "stateMutability": "nonpayable",
      "type": "function",
      "signature": "0xa30f9d2d"
    }
  ],
  "bytecode": "0x60806040523480156200001157600080fd5b5060405162000fab38038062000fab833981018060405260808110156200003757600080fd5b8101908080516401000000008111156200005057600080fd5b820160208101848111156200006457600080fd5b81516401000000008111828201871017156200007f57600080fd5b505092919060200180516401000000008111156200009c57600080fd5b82016020810184811115620000b057600080fd5b8151640100000000811182820187101715620000cb57600080fd5b5050602080830151604090930151865192955092935085918591601291620000fa916003919086019062000246565b5081516200011090600490602085019062000246565b506005805460ff191660ff92909216919091179055506200013d905033836401000000006200016d810204565b60058054600160a060020a039092166101000261010060a860020a031990921691909117905550620002eb915050565b600160a060020a03821615156200018357600080fd5b600254620001a0908264010000000062000a4c6200022c82021704565b600255600160a060020a038216600090815260208190526040902054620001d6908264010000000062000a4c6200022c82021704565b600160a060020a0383166000818152602081815260408083209490945583518581529351929391927fddf252ad1be2c89b69c2b068fc378daa952ba7f163c4a11628f55a4df523b3ef9281900390910190a35050565b6000828201838110156200023f57600080fd5b9392505050565b828054600181600116156101000203166002900490600052602060002090601f016020900481019282601f106200028957805160ff1916838001178555620002b9565b82800160010185558215620002b9579182015b82811115620002b95782518255916020019190600101906200029c565b50620002c7929150620002cb565b5090565b620002e891905b80821115620002c75760008155600101620002d2565b90565b610cb080620002fb6000396000f3fe608060405234801561001057600080fd5b5060043610610112576000357c01000000000000000000000000000000000000000000000000000000009004806340b2f5b5116100b4578063a457c2d711610083578063a457c2d714610312578063a9059cbb1461033e578063bf60e53b1461036a578063dd62ed3e1461039657610112565b806340b2f5b51461029457806370a08231146102b857806395d89b41146102de578063a30f9d2d146102e657610112565b806318160ddd116100f057806318160ddd1461020c57806323b872dd14610214578063313ce5671461024a578063395093511461026857610112565b806306fdde0314610117578063095ea7b31461019457806314074135146101d4575b600080fd5b61011f6103c4565b6040805160208082528351818301528351919283929083019185019080838360005b83811015610159578181015183820152602001610141565b50505050905090810190601f1680156101865780820380516001836020036101000a031916815260200191505b509250505060405180910390f35b6101c0600480360360408110156101aa57600080fd5b50600160a060020a03813516906020013561045a565b604080519115158252519081900360200190f35b6101fa600480360360208110156101ea57600080fd5b5035600160a060020a03166104d9565b60408051918252519081900360200190f35b6101fa6104e4565b6101c06004803603606081101561022a57600080fd5b50600160a060020a038135811691602081013590911690604001356104ea565b61025261050d565b6040805160ff9092168252519081900360200190f35b6101c06004803603604081101561027e57600080fd5b50600160a060020a038135169060200135610516565b61029c6105c6565b60408051600160a060020a039092168252519081900360200190f35b6101fa600480360360208110156102ce57600080fd5b5035600160a060020a03166105da565b61011f6105f5565b6101c0600480360360408110156102fc57600080fd5b50600160a060020a038135169060200135610656565b6101c06004803603604081101561032857600080fd5b50600160a060020a0381351690602001356107eb565b6101c06004803603604081101561035457600080fd5b50600160a060020a038135169060200135610836565b6101c06004803603604081101561038057600080fd5b50600160a060020a038135169060200135610857565b6101fa600480360360408110156103ac57600080fd5b50600160a060020a038135811691602001351661086a565b60038054604080516020601f60026000196101006001881615020190951694909404938401819004810282018101909252828152606093909290918301828280156104505780601f1061042557610100808354040283529160200191610450565b820191906000526020600020905b81548152906001019060200180831161043357829003601f168201915b5050505050905090565b6000600160a060020a038316151561047157600080fd5b336000818152600160209081526040808320600160a060020a03881680855290835292819020869055805186815290519293927f8c5be1e5ebec7d5bd14f71427d1e84f3dd0314c0f7b2291e5b200ac8c7c3b925929181900390910190a35060015b92915050565b60006104d382610895565b60025490565b60006104f78484846108ea565b610502848484610983565b506001949350505050565b60055460ff1690565b6000600160a060020a038316151561052d57600080fd5b336000908152600160209081526040808320600160a060020a0387168452909152902054610561908363ffffffff610a4c16565b336000818152600160209081526040808320600160a060020a0389168085529083529281902085905580519485525191937f8c5be1e5ebec7d5bd14f71427d1e84f3dd0314c0f7b2291e5b200ac8c7c3b925929081900390910190a350600192915050565b6005546101009004600160a060020a031681565b600160a060020a031660009081526020819052604090205490565b60048054604080516020601f60026000196101006001881615020190951694909404938401819004810282018101909252828152606093909290918301828280156104505780601f1061042557610100808354040283529160200191610450565b6000806106616104e4565b1161066b57600080fd5b6106a86106766104e4565b61068e84670de0b6b3a764000063ffffffff610a5e16565b81151561069757fe5b60075491900463ffffffff610a4c16565b6007557f40000000000000000000000000000000000000000000000000000000000000006106e66106d76104e4565b6007549063ffffffff610a5e16565b11156106f157600080fd5b600554604080517f23b872dd000000000000000000000000000000000000000000000000000000008152600160a060020a038681166004830152306024830152604482018690529151610100909304909116916323b872dd916064808201926020929091908290030181600087803b15801561076c57600080fd5b505af1158015610780573d6000803e3d6000fd5b505050506040513d602081101561079657600080fd5b505115156107a357600080fd5b604080518381529051600160a060020a038516917ffd79186865d95a3bc46c677ebca9c859b628dde3530e0e057736a0299706062f919081900360200190a250600192915050565b6000600160a060020a038316151561080257600080fd5b336000908152600160209081526040808320600160a060020a0387168452909152902054610561908363ffffffff610a8916565b60006108433384846108ea565b61084e338484610a9e565b50600192915050565b60006108638383610b6b565b9392505050565b600160a060020a03918216600090815260016020908152604080832093909416825291909152205490565b600160a060020a0381166000908152600660205260408120548190670de0b6b3a76400006108c2856105da565b600754028115156108cf57fe5b04019050600081126108e15780610863565b60009392505050565b600160a060020a038381169083161461097e576000610908846105da565b90506000610915846105da565b60078054600160a060020a038881166000908152600660205260408082208054670de0b6b3a76400008b8b0387028190049a9096028690049990990390980190975592549088168352949091208054868401860283900495909302919091049390930301909155505b505050565b600160a060020a03831660009081526001602090815260408083203384529091528120546109b7908363ffffffff610a8916565b600160a060020a03851660009081526001602090815260408083203384529091529020556109e6848484610a9e565b600160a060020a0384166000818152600160209081526040808320338085529083529281902054815190815290519293927f8c5be1e5ebec7d5bd14f71427d1e84f3dd0314c0f7b2291e5b200ac8c7c3b925929181900390910190a35060019392505050565b60008282018381101561086357600080fd5b6000821515610a6f575060006104d3565b828202828482811515610a7e57fe5b041461086357600080fd5b600082821115610a9857600080fd5b50900390565b600160a060020a0382161515610ab357600080fd5b600160a060020a038316600090815260208190526040902054610adc908263ffffffff610a8916565b600160a060020a038085166000908152602081905260408082209390935590841681522054610b11908263ffffffff610a4c16565b600160a060020a038084166000818152602081815260409182902094909455805185815290519193928716927fddf252ad1be2c89b69c2b068fc378daa952ba7f163c4a11628f55a4df523b3ef92918290030190a3505050565b600080610b7784610895565b905082811015610b8657600080fd5b600160a060020a0380851660008181526006602090815260408083208054899003905560055481517f39509351000000000000000000000000000000000000000000000000000000008152600481019590955260248501899052905161010090910490941693633950935193604480820194918390030190829087803b158015610c0f57600080fd5b505af1158015610c23573d6000803e3d6000fd5b505050506040513d6020811015610c3957600080fd5b5050604080518481529051600160a060020a038616917f36263ba6d12744d5cff511cccb3e7f307d324e2d8b8d80f32ee17946c9336e6b919081900360200190a2506001939250505056fea165627a7a72305820608b29ba1395020c26db0b9c8fa0ee32e8a94082962361ce14ec48937d834c1a0029",
  "source": "pragma solidity >=0.5.2;\r\n\r\nimport \"openzeppelin-solidity/contracts/token/ERC20/ERC20.sol\";\r\nimport \"openzeppelin-solidity/contracts/math/Math.sol\";\r\nimport \"openzeppelin-solidity/contracts/token/ERC20/ERC20Detailed.sol\";\r\nimport \"./ERC20Interface.sol\";\r\n\r\n\r\ncontract DividendTokenAcceptingUtility is ERC20, ERC20Detailed {\r\n  event ReleaseDividendsRights(address indexed to, uint value);\r\n  event AcceptDividends(address indexed from, uint value);\r\n\r\n  ERC20Interface public utility;\r\n  \r\n\r\n  constructor(string memory name, string memory symbol, uint totalSupply, address utility_) ERC20Detailed(name, symbol, 18) public{\r\n    _mint(msg.sender, totalSupply);\r\n    utility = ERC20Interface(utility_);\r\n  }\r\n\r\n\r\n  mapping (address => uint) private _dividendsRightsFix;\r\n  uint private _dividendsPerToken;\r\n  uint constant DECIMAL_MULTIPLIER = 1e18;\r\n  uint constant INT256_MAX = 1 << 255 - 1;\r\n\r\n  function dividendsRightsOf(address owner) public view returns (uint) {\r\n    return _dividendsRightsOf(owner);\r\n  }\r\n\r\n  function _dividendsRightsOf(address owner) internal view returns (uint) {\r\n    uint rights = _dividendsPerToken * balanceOf(owner) / DECIMAL_MULTIPLIER + _dividendsRightsFix[owner];\r\n    return int(rights) < 0 ? 0 : rights;\r\n  }\r\n\r\n\r\n  function _releaseDividendsRights(address to, uint value) internal returns(bool) {\r\n    uint dividendsRights = _dividendsRightsOf(to);\r\n    require(dividendsRights >= value);\r\n    _dividendsRightsFix[to] -= value;\r\n    /*here is no reentrancy*/\r\n    utility.increaseAllowance(to, value);\r\n    emit ReleaseDividendsRights(to, value);\r\n    return true;\r\n  }\r\n\r\n\r\n  function releaseDividendsRights(address to, uint value) public returns(bool) {\r\n    return _releaseDividendsRights(to, value);\r\n  }\r\n\r\n\r\n\r\n\r\n /**\r\n   * @dev Update dividends rights fix\r\n   * @param _from address The address which you want to send tokens from\r\n   * @param _to address The address which you want to transfer to\r\n   * @param _value uint the amount of tokens to be transferred\r\n   */\r\n  function _dividendsRightsFixUpdate(address _from, address _to, uint _value) private {\r\n    if (_from != _to) {\r\n      uint _balanceFrom = balanceOf(_from);\r\n      uint _balanceTo = balanceOf(_to);\r\n      _dividendsRightsFix[_from] += _dividendsPerToken * _balanceFrom / DECIMAL_MULTIPLIER - \r\n        _dividendsPerToken * (_balanceFrom - _value) / DECIMAL_MULTIPLIER;\r\n      _dividendsRightsFix[_to] += _dividendsPerToken * _balanceTo / DECIMAL_MULTIPLIER - \r\n        _dividendsPerToken * (_balanceTo + _value) / DECIMAL_MULTIPLIER; \r\n    }\r\n  }\r\n\r\n  /**\r\n  * @dev transfer token for a specified address\r\n  * @param to The address to transfer to.\r\n  * @param value The amount to be transferred.\r\n  */\r\n  function transfer(address to, uint value) public returns (bool) {\r\n    _dividendsRightsFixUpdate(msg.sender, to, value);\r\n    _transfer(msg.sender, to, value);\r\n    return true;\r\n  }\r\n\r\n\r\n  /**\r\n   * @dev Transfer tokens from one address to another\r\n   * @param from address The address which you want to send tokens from\r\n   * @param to address The address which you want to transfer to\r\n   * @param value uint the amount of tokens to be transferred\r\n   */\r\n  function transferFrom(address from, address to, uint value) public returns (bool) {\r\n    _dividendsRightsFixUpdate(from, to, value);\r\n    ERC20.transferFrom(from, to, value);\r\n    return true;\r\n  }\r\n\r\n\r\n  function acceptDividends(address from, uint value) external returns(bool) {\r\n    require(totalSupply() > 0);\r\n    _dividendsPerToken = _dividendsPerToken.add(value.mul(DECIMAL_MULTIPLIER)/totalSupply());\r\n    require(_dividendsPerToken.mul(totalSupply()) <= INT256_MAX);\r\n\r\n    require(utility.transferFrom(from, address(this), value));\r\n    emit AcceptDividends(from, value);\r\n    return true;\r\n  }\r\n}\r\n\r\n\r\n\r\n\r\n",
  "sourcePath": "C:/Users/snjax/Documents/projects/bankex/security-token/contracts/DividendTokenAcceptingUtility.sol",
  "compiler": {
    "name": "solc",
    "version": "0.5.2+commit.1df8f40c.Emscripten.clang"
  },
  "schemaVersion": "3.0.2",
  "updatedAt": "2019-03-05T11:59:34.217Z",
  "devdoc": {
    "methods": {
      "allowance(address,address)": {
        "details": "Function to check the amount of tokens that an owner allowed to a spender.",
        "params": {
          "owner": "address The address which owns the funds.",
          "spender": "address The address which will spend the funds."
        },
        "return": "A uint256 specifying the amount of tokens still available for the spender."
      },
      "approve(address,uint256)": {
        "details": "Approve the passed address to spend the specified amount of tokens on behalf of msg.sender. Beware that changing an allowance with this method brings the risk that someone may use both the old and the new allowance by unfortunate transaction ordering. One possible solution to mitigate this race condition is to first reduce the spender's allowance to 0 and set the desired value afterwards: https://github.com/ethereum/EIPs/issues/20#issuecomment-263524729",
        "params": {
          "spender": "The address which will spend the funds.",
          "value": "The amount of tokens to be spent."
        }
      },
      "balanceOf(address)": {
        "details": "Gets the balance of the specified address.",
        "params": {
          "owner": "The address to query the balance of."
        },
        "return": "An uint256 representing the amount owned by the passed address."
      },
      "decimals()": {
        "return": "the number of decimals of the token."
      },
      "decreaseAllowance(address,uint256)": {
        "details": "Decrease the amount of tokens that an owner allowed to a spender. approve should be called when allowed_[_spender] == 0. To decrement allowed value is better to use this function to avoid 2 calls (and wait until the first transaction is mined) From MonolithDAO Token.sol Emits an Approval event.",
        "params": {
          "spender": "The address which will spend the funds.",
          "subtractedValue": "The amount of tokens to decrease the allowance by."
        }
      },
      "increaseAllowance(address,uint256)": {
        "details": "Increase the amount of tokens that an owner allowed to a spender. approve should be called when allowed_[_spender] == 0. To increment allowed value is better to use this function to avoid 2 calls (and wait until the first transaction is mined) From MonolithDAO Token.sol Emits an Approval event.",
        "params": {
          "addedValue": "The amount of tokens to increase the allowance by.",
          "spender": "The address which will spend the funds."
        }
      },
      "name()": {
        "return": "the name of the token."
      },
      "symbol()": {
        "return": "the symbol of the token."
      },
      "totalSupply()": {
        "details": "Total number of tokens in existence"
      },
      "transfer(address,uint256)": {
        "details": "transfer token for a specified address\r",
        "params": {
          "to": "The address to transfer to.\r",
          "value": "The amount to be transferred.\r"
        }
      },
      "transferFrom(address,address,uint256)": {
        "details": "Transfer tokens from one address to another\r",
        "params": {
          "from": "address The address which you want to send tokens from\r",
          "to": "address The address which you want to transfer to\r",
          "value": "uint the amount of tokens to be transferred\r"
        }
      }
    }
  },
  "userdoc": {
    "methods": {}
  }
}